:100000006EC088C087C086C085C084C083C082C0DF
:10001000B1C080C07FC07EC07DC07CC07BC0FFFF00
:10002000FFFFFFFFFFFFFFFFFFF7DFC7AF977F6710
:100030004F371F0700000000000000000000000014
:10004000000000000000000000071F374F677F9787
:10005000AFC7DFF7FFFFFFFFFFFFFFFFFFFF001747
:100060002F475F778FA7BFD7EFFFFFFFFFFFFFFF90
:10007000FFFFFFFFFFFFFFFFFFFFFFFFFFFFFFE7A8
:10008000CFB79F876F573F270F0000000000000089
:100090000000000000000000000000000000000060
:1000A0000000000000000000000000000000000050
:1000B000000000000F273F576F879FB7CFE7FFFF74
:1000C000FFFFFFFFFFFFFFFFFFFFFFFFFFFFFFFF40
:1000D000FFFFFFFFEFD7BFA78F775F472F171124D1
:1000E0001FBECFE5D2E0DEBFCDBF10E0A0E6B0E09E
:1000F000E0EBF2E002C005900D92A436B107D9F70B
:1001000010E0A4E6B0E001C01D92A43BB107E1F706
:1001100083D0CCC075CFDC0150E0FB01E40FF51FAC
:10012000E4911196EC931197FB01E05CFF4FE40F13
:10013000F51FE491EC93FB01E058FF4FE40FF51F2E
:10014000649112966C930895FC01118210821282C0
:10015000089580E090E0FC01EB59FF4F108201967A
:100160008F319105C1F781E287B98FEA86B913B85B
:10017000369A08951F920F920FB60F9211246F9323
:100180008F9385B18F5787FF03C06EEF5FD001C09B
:10019000880F809364008F916F910F900FBE0F9026
:1001A0001F90189520E0E4E8F0E0322F422FF894F9
:1001B000C0982CE82A95F1F720E3419138E0C09AE5
:1001C000440F10F0C09802C00000C0983A95B9F7EB
:1001D0002A9599F778940895BCDF109164001295E0
:1001E0001F70C4E8D0E000E0011741F040E06EE18C
:1001F00070E0CE0190DF0F5F2396F6CF103150F400
:10020000812F90E063E070E02AD08C579F4F9CDFF5
:100210001F5FF4CFC7DFE1CF83E087BB18BA80E070
:1002200090E02ED0C1E0C80F80916000C81708F0A0
:10023000C0E06C2F80E090E02BD0D0E0CC0FDD1F31
:10024000CF59DF4FE881F9810995FCCF002480FD6B
:10025000060E660F11F08695D1F7802D08950024C3
:10026000552704C0080E591F880F991F009729F0C1
:1002700076956795B8F37105B9F7802D952F089598
:10028000E199FECF9FBB8EBBE09A99278DB308956D
:10029000262FE199FECF1CBA9FBB8EBB2DBB0FB69C
:1002A000F894E29AE19A0FBE01960895F894FFCF70
:0402B00001EC00005D
:00000001FF
