:100000000EC01DC01CC01BC01AC019C018C017C02C
:1000100016C015C014C013C012C011C010C01124E6
:100020001FBECFE5D2E0DEBFCDBF10E0A0E6B0E05E
:1000300001C01D92A039B107E1F71AD031C0E0CF5D
:1000400020E0E0E6F0E0322F422FC0982CE82A951D
:10005000F1F720E3419138E0C09A440F10F0C098C6
:1000600002C00000C0983A95B9F72A9599F708950B
:1000700083E087BB18BA8FE780936100109260001D
:1000800010926200109264008093630010926500E9
:10009000109267001092660080936800D1DFFECF57
:0400A000F894FFCF02
:00000001FF
