:100000008EC6A8C6A7C6A6C6A5C6A4C6A3C6A2C6AF
:10001000DCC6A0C69FC69EC69DC69CC69BC67F7FEB
:100020007F7F7F7F7F7F7F7F7F7F7F7F7F7F7F7FE0
:100030007F7F7F7F7F7F7F7F7F7F7F7F7F7F7F7FD0
:100040007F7F7F7F7F7F7F7F7F7F7F7F7F7F7D79C8
:100050007673706D6A6865625F5C5A575552504D91
:100060004B484643413F3D3B38363432302D2C2BF4
:100070002A292827262524232221201F1E1D1C1B58
:100080001A191817161514131211100F0E0D0C0B48
:100090000A09080706050403020100000000000029
:1000A0000000000102030405060708090A0B0C0DF5
:1000B0000E0F101112131415161718191A1B1C1DE8
:1000C0001E1F202122232425262728292A2B2C2DD8
:1000D00030323436383B3D3F414346484B4D505219
:1000E00055575A5C5F6265686A6D707376797D7F7B
:1000F0007F7F7F7F7F7F7F7F7F7F7F7F7F7F7F7F10
:100100007F7F7F7F7F7F7F7F7F7F7F7F7F7F7F7FFF
:100110007F7F7F7F7F7F7F7F7F7F7F7F7F7F0000ED
:10012000000100000300000500000700000A0000B5
:100130000D00001100001600001B0000200000262A
:1001400000002C00003300003A00004200004A008A
:10015000005300005C00006500007000007A0000A1
:100160008500009100009D0000A90000B60000C4B9
:100170000000D20000E00000EF0000FF00000000DF
:10018000000100000300000500000701000A010053
:100190000D02001103001604001B050020060026B6
:1001A00007002C08003309003A0A00420C004A0DEF
:1001B00000530F005C11006513007015007A1600E3
:1001C000851900911B009D1D00A91F00B62200C4C7
:1001D0002400D22700E02A00EF2C00FF2F000000AF
:1001E000000100000301000501000702000A0300EE
:1001F0000D05001106001608001B0A00200C002641
:100200000E002C10003313003A15004218004A1B50
:1002100000531F005C2200652600702A007A2D0022
:100220008532009136009D3A00A93F00B64400C4D3
:100230004900D24E00E05400EF5900FF5F0000007B
:10024000000100000301000502000704000A050088
:100250000D0700110A00160C001B0F0020120026CB
:1002600015002C1900331C003A20004225004A29B1
:1002700000532E005C3300653900703F007A440063
:10028000854B009151009D5800A95F00B66600C4DF
:100290006E00D27600E07E00EF8600FF8F00000047
:1002A000000101000302000503000705000A070022
:1002B0000D0A00110D001610001B14002018002656
:1002C0001C002C21003326003A2B004231004A3713
:1002D00000533E005C4500654C007054007A5B00A2
:1002E000856400916C009D7500A97F00B68900C4EB
:1002F0009300D29D00E0A800EFB300FFBF00000014
:10030000000101000302000504000707000A0900BC
:100310000D0D001110001614001B1900201E0026E0
:1003200023002C29003330003A3600423E004A4573
:1003300000534D005C5600655F007069007A7200E2
:10034000857D009188009D9300A99F00B6AB00C4F5
:10035000B800D2C500E0D200EFE000FFEF000000DF
:1003600000010100020300040500060700090A005D
:100370000C0D000F1100131600171B001C2000218C
:100380002600262C002C3300333A00394200414A23
:1003900000485300505C005965006270006B7A00A1
:1003A0007585007F9100899D0094A9009FB600ABE0
:1003B000C400B7D200C4E000D1EF00DFFF000000AE
:1003C00000010100020300030500050700070A0001
:1003D000090D000C11000F1600121B001620001A48
:1003E00026001E2C00233300283A002D4200334AF9
:1003F000003953003F5C004665004D7000547A00A0
:100400005B85006391006C9D0074A9007DB6008639
:10041000C40090D2009AE000A4EF00AFFF000000FB
:1004200000000100010300020500030700050A00A7
:10043000060D000811000B16000D1B001020001304
:100440002600162C001933001D3A00214200254ACF
:10045000002953002E5C003265003870003D7A00A0
:100460004285004891004E9D0054A9005BB6006291
:10047000C40069D20070E00077EF007FFF00000049
:1004800000000100000300010500020700030A004C
:10049000040D00051100061600081B000A20000BC1
:1004A00026000D2C00103300123A00144200174AA7
:1004B000001953001C5C001F6500237000267A00A1
:1004C0002985002D9100319D0035A90039B6003DE8
:1004D000C40041D20046E0004AEF004FFF00000098
:1004E00000000100000300000500000700010A00F1
:1004F000010D00021100021600031B00042000047D
:100500002600052C00063300073A00084200094A7D
:10051000000A53000B5C000C65000E70000F7A009F
:10052000108500129100139D0015A90016B6001841
:10053000C4001AD2001CE0001DEF001FFF000000E5
:1005400000000100000300000500000700000A0091
:10055000000D00001101001601001B010020020027
:100560002602002C02003303003A03004204004A32
:1005700004005305005C05006506007007007A075B
:10058000008508009109009D0900A90A00B60B002A
:10059000C40C00D20D00E00E00EF0E00FF0F0000B3
:1005A00000000100000300000501000701000A022D
:1005B000000D03001104001605001B0600200800B2
:1005C0002609002C0B00330C003A0E004210004AA2
:1005D00012005314005C1700651900701C007A1E8D
:1005E000008521009124009D2700A92A00B62D0036
:1005F000C43100D23400E03800EF3B00FF3F000080
:1006000000000100000301000502000703000A04C6
:10061000000D06001107001609001B0B00200E003C
:100620002610002C13003316003A1900421C004A11
:1006300020005324005C2800652C007031007A35BE
:1006400000853A00913F009D4400A94A00B64F0042
:10065000C45500D25B00E06200EF6800FF6F00004D
:1006600000000101000301000503000704000A0661
:10067000000D0800110B00160D001B1000201400C7
:100680002617002C1B003320003A24004229004A80
:100690002E005333005C3900653F007046007A4CF1
:1006A00000855300915A009D6200A96A00B672004D
:1006B000C47A00D28300E08C00EF9500FF9F000019
:1006C00000000101000302000504000706000A08FB
:1006D000000D0B00110E001612001B1500201A0051
:1006E000261F002C24003329003A2F004235004AEF
:1006F0003C005343005C4A00655200705B007A6323
:1007000000856C009176009D7F00A98A00B6940058
:10071000C49F00D2AA00E0B600EFC200FFCF0000E5
:1007200000000101000303000505000707000A0A95
:10073000000D0D001111001616001B1B00202000DB
:100740002626002C2C003333003A3A004242004A5D
:100750004A005353005C5C006565007070007A7A53
:10076000008585009191009D9D00A9A900B6B60065
:10077000C4C400D2D200E0E000EFEF00FFFF0000B1
:100780000000010100020300040500060700080A3A
:10079000000B0D000E1100121600151B001A200090
:1007A0001F2600242C002933002F3A003542003C3C
:1007B0004A004353004A5C005265005B7000637A54
:1007C000006C85007691007F9D008AA90094B60098
:1007D0009FC400AAD200B6E000C2EF00CFFF000025
:1007E0000000010100010300030500040700060AE0
:1007F00000080D000B11000D1600101B0014200046
:100800001726001B2C00203300243A002942002E1A
:100810004A00335300395C003F65004670004C7A53
:10082000005385005A9100629D006AA90072B600CB
:100830007AC40083D2008CE00095EF009FFF000097
:100840000000000100010300020500030700040A84
:1008500000060D000711000916000B1B000E2000FA
:10086000102600132C00163300193A001C420020F9
:100870004A00245300285C002C6500317000357A52
:10088000003A85003F9100449D004AA9004FB60000
:1008900055C4005BD20062E00068EF006FFF00000B
:1008A0000000000100000300010500010700020A2A
:1008B00000030D00041100051600061B00082000AF
:1008C0000926000B2C000C33000E3A0010420012D7
:1008D0004A00145300175C001965001C70001E7A52
:1008E00000218500249100279D002AA9002DB60033
:1008F00031C40034D20038E0003BEF003FFF00007D
:100900000000000100000300000500000700000ACD
:1009100000000D00011100011600011B0002200063
:10092000022600022C00033300033A0004420004B4
:100930004A00055300055C00066500077000077A51
:1009400000088500099100099D000AA9000BB60066
:100950000CC4000DD2000EE0000EEF000FFF0000EF
:100960000000000100000300000500000701000A6C
:1009700001000D02001102001603001B04002004F8
:10098000002605002C06003307003A080042090043
:100990004A0A00530B005C0C00650E00700F007AD1
:1009A00010008512009113009D1500A91600B618BD
:1009B00000C41A00D21C00E01D00EF1F00FF000061
:1009C0000000000100000301000502000703000A07
:1009D00004000D05001106001608001B0A00200B7C
:1009E00000260D002C10003312003A1400421700AC
:1009F0004A1900531C005C1F006523007026007A12
:100A00002900852D009131009D3500A93900B63DA2
:100A100000C44100D24600E04A00EF4F00FF000052
:100A20000000000101000302000503000705000AA1
:100A300006000D0800110B00160D001B10002013FE
:100A4000002616002C1900331D003A210042250013
:100A50004A2900532E005C3200653800703D007A50
:100A60004200854800914E009D5400A95B00B6628B
:100A700000C46900D27000E07700EF7F00FF000043
:100A80000001000102000303000505000707000A3A
:100A900009000D0C00110F001612001B1600201A81
:100AA00000261E002C23003328003A2D004233007C
:100AB0004A3900533F005C4600654D007054007A8F
:100AC0005B00856300916C009D7400A97D00B68673
:100AD00000C49000D29A00E0A400EFAF00FF000035
:100AE0000001000102000304000506000709000AD6
:100AF0000C000D0F001113001617001B1C00202105
:100B0000002626002C2C003333003A3900424100E5
:100B10004A48005350005C5900656200706B007ACF
:100B20007500857F009189009D9400A99F00B6AB58
:100B300000C4B700D2C400E0D100EFDF00FF000026
:100B4000000100010300020500040700070A000974
:100B50000D000D1100101600141B001920001E2698
:100B600000232C00293300303A003642003E4A0070
:100B70004553004D5C005665005F7000697A007255
:100B800085007D9100889D0093A9009FB600ABC4AD
:100B900000B8D200C5E000D2EF00E0FF00EF000097
:100BA000000100010300020500030700050A000719
:100BB0000D000A11000D1600101B0014200018264D
:100BC000001C2C00213300263A002B4200314A0041
:100BD0003753003E5C004565004C7000547A005B62
:100BE00085006491006C9D0075A9007FB60089C4E2
:100BF0000093D2009DE000A8EF00B3FF00BF00000B
:100C0000000100000300010500020700040A0005BE
:100C10000D000711000A16000C1B000F2000122601
:100C200000152C001933001C3A00204200254A0010
:100C30002953002E5C003365003970003F7A004470
:100C400085004B9100519D0058A9005FB60066C415
:100C5000006ED20076E0007EEF0086FF008F00007D
:100C6000000100000300010500010700020A000363
:100C70000D00051100061600081B000A20000C26B6
:100C8000000E2C00103300133A00154200184A00E1
:100C90001B53001F5C002265002670002A7A002D7D
:100CA0008500329100369D003AA9003FB60044C449
:100CB0000049D2004EE00054EF0059FF005F0000F1
:100CC000000100000300000500000700010A000108
:100CD0000D00021100031600041B0005200006266B
:100CE00000072C00083300093A000A42000C4A00B1
:100CF0000D53000F5C00116500137000157A00168B
:100D000085001991001B9D001DA9001FB60022C47B
:100D10000024D20027E0002AEF002CFF002F11242E
:100D20001FBECFE5D2E0DEBFCDBF10E0A0E6B0E051
:100D3000E2EDF1E102C005900D92AC36B107D9F7B2
:100D400010E0ACE6B0E001C01D92A23AB107E1F7B5
:100D50009DD03DC255C970E0242F30E0240F311DD5
:100D6000240F311DAB01440F551F640F751FAB01DC
:100D7000440F551F42955295507F5427407F54276A
:100D8000420F531FFA01E25EFE4FE491282F30E03C
:100D9000280F311D280F311DD901AE58BF4F1196B4
:100DA000EC931197FA01E15EFE4FE491EC93FA01A6
:100DB000E05EFE4F449112964C93089581E287B90C
:100DC0008FEA86B913B8369A08951F920F920FB61C
:100DD0000F9211242F933F938F939F93EF93FF9341
:100DE000E5B1F0E0E25EFF4FE491809170009091F8
:100DF00071008E0F911DE7FD9A959093710080937D
:100E0000700080916D008F5F80936D00811119C01B
:100E1000809170009091710020916E0030916F0070
:100E2000821B930B880F892F881F990B91958093B4
:100E30006C00809170009091710090936F0080938E
:100E40006E00FF91EF919F918F913F912F910F90A5
:100E50000FBE0F901F90189520E0E2E7F0E0322FD0
:100E6000422FC0982CE82A95F1F720E3419138E011
:100E7000F894C09A440F10F0C09802C00000C098C7
:100E80003A95B9F778942A9589F7089583E087BB56
:100E900018BA80E090E085D1C1E0C80F8091600071
:100EA000C81708F0C0E06C2F80E090E082D1D0E05D
:100EB000CC0FDD1FCF59DF4FE881F9810995FCCFB9
:100EC00080E090E0FC01EE0FFF1FE80FF91FEE58E5
:100ED000FF4F12821082118201968031910591F7A5
:100EE0006DDFC0E0D0E00F2EFFE1DF2EF02DE12C12
:100EF00000916C000695003208F00D2DC00FD11D39
:100F0000FD2EF694F694F6941E2D402F6F2D812F12
:100F100022DF1F5F1031C9F79FDFEACFCF93DF9346
:100F2000CDB7DEB728970FB6F894DEBF0FBECDBFA2
:100F3000FE01319688E0DF011D928A95E9F780E095
:100F400090E0FC01EE0FFF1FE80FF91FEE58FF4F76
:100F500012821082118201968031910591F72EDF65
:100F60008E01075F1F4F0F2EF0EF2F2EF02D312C2B
:100F70000F2EFDE88F2EF0E09F2EF02D0F2EF5E7BF
:100F8000AF2EF0E0BF2EF02D0F2EF0E9CF2EF0E0C7
:100F9000DF2EF02D0F2EF8E7EF2EF0E0FF2EF02DD4
:100FA0000F2EF3E96F2EF0E07F2EF02D0F2EFBE7D2
:100FB0004F2EF0E05F2EF02D80916C00FE013196F7
:100FC000803118F02082805109C090E0829592957E
:100FD000907F9827807F98278083832D3196E01714
:100FE000F10771F78885882311F08FEF8887898151
:100FF000F4018083D5018C938A81F6018083D70127
:101000008C938B81F3018083D2018C938C81E6E9F0
:10101000F0E08083AEE7B0E08C938D81982F9695B9
:10102000909399009093810080939A00809382001E
:101030008E81982F969590939C0090938400809336
:101040009D00809385008F81982F969590939F00A7
:10105000909387008093A000809388008885809378
:10106000730080938B00F8DEA7CF00E0F12C68942A
:10107000CC24C4F8D12CE12C1CC0103118F080EF26
:10108000810F01C0812F4FE1602F65DEE5DE2FEF7C
:1010900089EF90E0215080409040E1F700C00000CF
:1010A0001F5F812F90E08C179D073CF30F5F0F713E
:1010B000F3942FE02F1528F4CC2DDD2DFE2C1F2DC1
:1010C000DCCF8F2D90E0EC0160968C179D0774F7B4
:1010D000F6CFEF92FF920F931F93CF93DF93EE24FF
:1010E000E394F12C10E036C04FE162E0812F8F7065
:1010F00032DEB2DE2FEF89EF90E021508040904049
:10110000E1F700C000001F5F812F90E08C179D0762
:101110005CF31E2DEC16FD06B4F40E2D40E062E0EB
:10112000802F8F7018DE98DE2FEF89EF90E021502E
:1011300080409040E1F700C000000F5F802F90E0FA
:101140008C179D075CF32FEFE21AF20A81E1E81693
:10115000F10441F0812F90E0EC0160968C179D071F
:101160001CF2D7CFDF91CF911F910F91FF90EF909D
:101170000895C0E04FE16EE18C2FEDDD6DDE2FEFC5
:1011800089EF90E0215080409040E1F700C00000DE
:1011900040E06EE18C2FDFDDCF5FC03158F3C0E05F
:1011A000E9CFE199FECF9FBB8EBBE09A99278DB323
:1011B0000895262FE199FECF1CBA9FBB8EBB2DBB95
:1011C0000FB6F894E29AE19A0FBE01960895F8944A
:0211D000FFCF4F
:0C11D20005B908690835088E07600700A1
:00000001FF
