:100000006EC088C087C086C085C084C083C082C0DF
:1000100081C080C07FC07EC07DC07CC07BC0FFFF30
:10002000FFFFFFFFFFFFFFFFFFF7DFC7AF977F6710
:100030004F371F0700000000000000000000000014
:10004000000000000000000000071F374F677F9787
:10005000AFC7DFF7FFFFFFFFFFFFFFFFFFFF001747
:100060002F475F778FA7BFD7EFFFFFFFFFFFFFFF90
:10007000FFFFFFFFFFFFFFFFFFFFFFFFFFFFFFE7A8
:10008000CFB79F876F573F270F0000000000000089
:100090000000000000000000000000000000000060
:1000A0000000000000000000000000000000000050
:1000B000000000000F273F576F879FB7CFE7FFFF74
:1000C000FFFFFFFFFFFFFFFFFFFFFFFFFFFFFFFF40
:1000D000FFFFFFFFEFD7BFA78F775F472F171124D1
:1000E0001FBECFE5D2E0DEBFCDBF10E0A0E6B0E09E
:1000F000E8E4F3E002C005900D92A836B107D9F705
:1001000010E0A8E6B0E001C01D92A839B107E1F700
:10011000D8D018C175CFDC0150E0FB01E40FF51F0A
:10012000E4911196EC931197FB01E05CFF4FE40F13
:10013000F51FE491EC93FB01E058FF4FE40FF51F2E
:10014000649112966C930895FC01118210821282C0
:10015000089520E0E8E6F0E0322F422FC0982CE826
:100160002A95F1F720E3419138E0C09A440F10F04E
:10017000C09802C00000C0983A95B9F72A9599F73F
:100180000895CF93DF931F92CDB7DEB720E010E044
:10019000012FE12EF12CEFE0EE0EF11C802F90E00C
:1001A000E816F906F4F0003118F080EF800F01C076
:1001B000802F90E063E070E09ED0422F6EE170E00F
:1001C00088599F4F2983A7DFC4DF3FEF89EF90E075
:1001D000315080409040E1F700C000000F5F29815E
:1001E000DDCF2F5F2F731F5F103188F6D1CF0F93B4
:1001F0001F93CF93DF93CFE0D0E00C2F1C2F1F5025
:10020000812F90E0C817D907C4F0812F8F7090E03C
:1002100063E070E070D043E06EE170E088599F4F7A
:100220007ADF97DF2FEF89EF90E0215080409040F8
:10023000E1F700C000001F5FE3CF12EF100F812F26
:1002400090E0C817D907ACF0812F8F7090E063E081
:1002500070E051D088599F4F77DF7BDF2FEF89EF18
:1002600090E0215080409040E1F700C000001F5F07
:10027000E6CF2196CF31D10509F0BFCFDF91CF91E5
:100280001F910F91089510E0812F90E063E070E0DE
:1002900032D0EC01C859DF4F4CE36EE170E0CE0183
:1002A0003ADF57DF2FEF89EF90E0215080409040F8
:1002B000E1F700C00000CE0147DF1F5F103120F3DF
:1002C000E2CF83E087BB18BA80E090E025D0C1E0A0
:1002D000C80F80916000C81708F0C0E06C2F80E064
:1002E00090E022D0D0E0CC0FDD1FCF59DF4FE88166
:1002F000F9810995FCCF0024552704C0080E591F29
:10030000880F991F009729F076956795B8F37105C6
:10031000B9F7802D952F0895E199FECF9FBB8EBB35
:10032000E09A99278DB30895262FE199FECF1CBA44
:100330009FBB8EBB2DBB0FB6F894E29AE19A0FBE1D
:0803400001960895F894FFCF27
:08034800034301F700C10000AE
:00000001FF
